:020000040800F2
:1000000080060020A1010008871D0008891A000849
:10001000851D0008450400087D240008000000003C
:10002000000000000000000000000000351F000874
:100030004704000800000000891D0008371F000861
:10004000BB010008BB010008BB010008BB010008A0
:10005000BB010008BB010008BB010008BB01000890
:10006000BB010008BB010008BB010008BB01000880
:10007000BB010008BB010008BB010008BB01000870
:10008000BB010008BB010008BB010008BB01000860
:10009000BB010008BB010008BB010008BB01000850
:1000A000BB010008BB010008BB010008BB01000840
:1000B000BB0100080000000000000000BB010008B8
:1000C000BB0100080000000000000000BB010008A8
:1000D000000000001924000871240008000000003E
:1000E000BB010008BB010008000000000000000088
:1000F0000000000000000000000000000000000000
:10010000000000000000000000000000BB0100082B
:100110000000000000000000BB010008BB01000857
:10012000BB010008BB010008BB010008BB010008BF
:10013000BB010008000000000000000000000000FB
:10014000BB010008BB010008BB010008BB0100089F
:10015000BB010008BB010008BB010008BB0100088F
:10016000BB010008BB010008BB0100080000000043
:10017000BB010008BB0100080000000000000000F7
:10018000BB010008BB010008BB010008DFF80CD070
:1001900000F038F9004800475D2B00088006002079
:1001A0000648804706480047FEE7FEE7FEE7FEE711
:1001B000FEE7FEE7FEE7FEE7FEE7FEE7B51F000805
:1001C0008D0100082DE9F05F0546002092469B4610
:1001D00088460646814640241BE02846414647465D
:1001E000224600F0A8F853465A46C01A914110D34F
:1001F00011461846224600F08FF82D1A67EB0108C9
:100200004F4622460120002100F086F817EB000936
:100210004E41201EA4F10104DFDC484631462A4647
:10022000434600F000B830BCBDE8C09FD2B201E048
:1002300000F8012B491EFBD270470022F6E710B5EB
:1002400013460A4604461946FFF7F0FF204610BD44
:10025000421C10F8011B0029FBD1801A704730B5F1
:1002600005460020034600E05B1C934205D2EC5C8F
:10027000C85C201A01D1002CF6D130BD2DE9F04721
:1002800091460F4680460446002614F8015B2DB1C6
:1002900000F062F80068405DC007F6D12B2D02D057
:1002A0002D2D18D0641E4A463946204600F058F8D5
:1002B00027B13968A14201D1C7F8008071054FF01C
:1002C00002040BD54042002803DD02F0FDF8046073
:1002D000A007BDE8F08746F48066E4E70028F8DA76
:1002E00002F0F2F804606FF00040F2E730B50B4620
:1002F000014600202022012409E021FA02F59D4256
:1003000005D303FA02F5491B04FA02F52844151E29
:10031000A2F10102F1DC30BD202A04DB203A00FA10
:1003200002F1002070479140C2F1200320FA03F34C
:10033000194390407047202A04DB203A21FA02F04A
:100340000021704721FA02F3D040C2F1200291400F
:10035000084319467047000000487047242F0008E2
:100360002DE9F05F82460078002715468B460AF19A
:100370000104B946302801D09DB113E014F8010BF7
:100380000127782803D0582801D045B10AE00DB1E3
:10039000102D07D10027102514F8010B02E00825C5
:1003A00000E00A250026B0460EE005FB080005FB2C
:1003B00006F1012701EB10461FFA80F8B6F5803FE1
:1003C00000D3B94614F8010B294600F02DF8002897
:1003D000EBDABBF1000F05D00FB1641E00E054460C
:1003E000CBF80040B9F1000F06D002F06DF8022101
:1003F0000160C81E00F003B848EA0640FAE730BCC6
:10040000BDE8C09F064C074D06E0E06840F00103E0
:1004100094E8070098471034AC42F6D3FFF7BAFED1
:10042000282F0008482F00083A2800D2303820F042
:100430002002412A01D3A2F13700884201D34FF0B4
:10044000FF307047FEE7704710B590F82510002484
:10045000022903D00421C16301241AE001680A685B
:1004600022F00E020A6001680A6822F001020A60A6
:1004700090F84410036C01F01C02012101FA02F211
:100480005A6080F82510002180F82410816B01B19A
:100490008847204610BD00002DE9FC4FDFF880A101
:1004A000002301250AF1040B03244FF00F0C0BF17C
:1004B000040EAEE005FA03F632406FD04F68012F0C
:1004C00005D0022F03D0112F01D0122F17D1D0F851
:1004D00008905F0004FA07F829EA08090097D1F8A4
:1004E0000C8008FA07F848EA0908C0F8088047684D
:1004F000B7430E79C6F300169E403E434660C66879
:100500004FEA430804FA08F7BE4301978F6807FAD9
:1005100008F73743C7604E68022E01D0122E13D160
:10052000DE0800EB86060096366A5F07FF0E0CFABF
:1005300007F926EA0906D1F8109009FA07F949EAFD
:100540000609009EC6F820900768019EB7430E7901
:1005500006F0030606FA08F63E4306604E68F6000B
:1005600056D5304E376E47F001073766366E23F0AA
:10057000030706F0010600962B4E3E44B146B668CE
:100580009F074FEA17780CFA08F7BE43B0F1904F77
:1005900005D0264FB84204D1012708E038E00027F3
:1005A00005E0234FB84201D1022700E0072707FAF0
:1005B00008F73743C9F80870DAF800605746D1F8F1
:1005C000048096435FEAC83800D516433E60DBF8E6
:1005D00000605F46D1F8048096435FEA883800D512
:1005E00016433E60DEF800607746D1F804809643FB
:1005F0005FEAC82800D516433E60094F0C373E68B5
:10060000D1F8048096435FEA882800D516433E60FF
:100610005B1C0A6832FA03F67FF44CAF00F00AB8AC
:1006200000040140001002400000014000040048A6
:10063000000800481CBCBDE8E08F42690A4201D0B6
:1006400081627047816170470AB181617047816240
:1006500070470000014880687047000020000020BB
:1006600090F84120202A24D190F84020012A20D05F
:10067000012280F84020242280F84120026813687B
:1006800023F0010313600268136823F4805313609E
:10069000026813680B43136001680A6842F00102A4
:1006A0000A60202180F84110002180F8401008469F
:1006B00070470220704790F84120202A22D190F8FC
:1006C0004020012A1ED0012280F84020242280F8F8
:1006D00041200268136823F0010313600268136865
:1006E00023F4706343EA0121116001680A6842F053
:1006F00001020A60202180F84110002180F840109A
:10070000084670470220704770B5040004D094F882
:100710004100002510B106E0012070BD84F8405072
:10072000204600F079F9242084F84100206801680F
:1007300021F0010101606068216820F070600861AB
:100740002068816821F400418160E0680128A06888
:1007500007D040F4044021688860E068022803D094
:1007600006E040F40040F6E721684FF4006048607E
:1007700020684168114A114341602068C16821F432
:100780000041C160D4E904010843A16940EA0120A5
:100790002168C860D4E9070108432168086020681F
:1007A000016841F0010101606564202084F8410086
:1007B000256384F84250002070BD000000800002D4
:1007C0002DE9F84F044690F84100DDF828A01F46B7
:1007D00090468B4620287ED194F8400001287AD09C
:1007E000012084F84000FFF735FF06460122009003
:1007F0001923D103204601F0B1F9E0BB222084F88F
:100800004100102084F8420000256564C4F824806B
:1008100067856563618D3148FF274FF080784FF021
:100820000079FF2903D927853A46009039E0618D88
:10083000218500903AE05946204601F079F913E00D
:1008400001F0B8F9B8B92068406A616A0870606A56
:10085000401C6062208D401E80B22085618D491E43
:100860006185618D01B168B1608D324600285146C5
:100870002046E5D100E002E001F0DEF9D0B1012030
:1008800000F030B85346002280212046009601F047
:1008900065F90028F3D1608DFF2804D927853A46F1
:1008A00000954346C7E7608D2085009594F8282081
:1008B0004B46C0E721682020C86121684A68084B80
:1008C0001A404A6084F8410084F8425084F840504D
:1008D0000020D5E7FFE70220D2E7000000240080D7
:1008E00000E800FE18BCBDE8E08F00002DE9F84FDD
:1008F000044690F84100DDF828A01F4690468B463C
:1009000020287ED194F8400001287AD0012084F874
:100910004000FFF79FFE0646012200901923D103F5
:10092000204601F01BF9E0BB212084F84100102093
:1009300084F8420000256564C4F8248067856563F7
:10094000618D3148FF274FF080784FF00079FF2903
:1009500003D927853A46009039E0618D21850090C2
:100960003AE05946204601F0E3F813E001F08AF935
:10097000B8B9606A216800788862606A401C606269
:10098000608D401E6085208D401E80B22085618D67
:1009900001B168B1608D3246002851462046E5D14C
:1009A00000E002E001F048F9D0B1012000F030B8D9
:1009B0005346002280212046009601F0CFF80028FF
:1009C000F3D1608DFF2804D927853A460095434628
:1009D000C7E7608D2085009594F828204B46C0E736
:1009E00021682020C86121684A68084B1A404A6083
:1009F00084F8410084F8425084F840500020D5E744
:100A0000FFE70220D2E700000020008000E800FE9F
:100A100018BCBDE8E08F000010B586B00446142174
:100A20006846FFF70AFC1249206888421ED1114C23
:100A3000E06C40F00200E064E06C694600F0020007
:100A40000590C02000901220019001200290032008
:100A50000390042004900848FFF71EFDA06D40F4A9
:100A60000010A065A06D00F40010059006B010BD48
:100A70000054004000100240000400480248816811
:100A800042681144816070472000002010B50024A6
:100A9000032000F071F8002000F008F808B10124EC
:100AA00001E000F025F8204610BD000070B50E4EA4
:100AB00005460024706898B14FF47A71B1FBF0F0EC
:100AC0000A490968B1FBF0F000F0A6FD40B9102D0D
:100AD00006D200222946501E00F02EF8356000E0B4
:100AE0000124204670BD0000200000202C000020C2
:100AF000094808B5016E41F001010166016E01F07F
:100B000001010091816D41F080518165806D00F09F
:100B10008050009008BD000000100240002809DB52
:100B200000F01F02012191404009800000F1E02007
:100B3000C0F8001170470000F0B40E4B1B680C4663
:100B4000C3F30223C3F10705042D00D90425191DA1
:100B5000072901D2002300E0DB1E012606FA05F179
:100B6000491E214099409E40761E16403143F0BCFC
:100B700001F09ABC0CED00E0064900F0070208689D
:100B80004FF6FF03184040EA0220034A1043086072
:100B9000704700000CED00E00000FA051649B0F5C2
:100BA000007F0868C0F3412009D0022805D00868FA
:100BB00020F4C06040F48060086000207047012885
:100BC000FBD0086820F4C06040F4007008600B4857
:100BD0003222006850430A4AB0FBF2F0401C00E0A9
:100BE000401E4A69520501D50028F9D148694005DF
:100BF000E3D5032070470000007000402C00002067
:100C000040420F000248006800F4C06070470000D6
:100C1000007000402DE9F84F0446002700889C4DE5
:100C20003E46000515D5E06B60B1B0F5000F04D06D
:100C3000B0F5400F2BD001270AE0E86840F480307F
:100C4000E86024E00021201D01F0A0F807001ED07C
:100C50003E462068800338D5A86D4FF00008C000DC
:100C600009D4A86D40F08050A865A86D4FF0010828
:100C700000F080500090DFF81CA2DAF8001041F478
:100C80008071CAF80010FFF7E5FC814610E0D5F846
:100C90008800E16B20F440000843C5F88800D8E7DD
:100CA000FFF7D8FCA0EB0900022801D9032704E0D4
:100CB000DAF80000C005F3D5EFB33E46B8F1000FF7
:100CC00003D0A86D20F08050A8652078C00707D019
:100CD000D5F88800216A20F003000843C5F8880091
:100CE0002078800707D5D5F88800616A20F00C00CD
:100CF0000843C5F888002078800607D5D5F8880015
:100D0000A16A20F440600843C5F888002088800567
:100D100007D5D5F88800616B20F440200843C5F85A
:100D200088002088400509D5D5F88800A16B20F4FB
:100D30004010084300E02EE0C5F888002078400607
:100D400007D5D5F88800E16A20F440500843C5F87B
:100D500088002088C00507D5D5F88800216B20F4CD
:100D600040300843C5F8880020884FF000678004B1
:100D70004FF080684ED5D5F88800216C20F0406097
:100D80000843C5F88800206CB8423BD1E86840F4BD
:100D90008010E8603EE0D5F8900010F4407014D068
:100DA000216D814211D0D5F89000D5F8901020F433
:100DB000407041F48031C5F89010D5F8901021F4BE
:100DC0008031C5F89010C5F89000C00711D0FFF72A
:100DD00041FC074641F2883907E000BFFFF73AFCC3
:100DE000C11B494501D9032668E7D5F89000800763
:100DF000F4D5D5F89000216D20F440700843C5F873
:100E000090005BE7404505D10121201D00F0BEFFA9
:100E100000B106462068400317D5D5F88800616CFC
:100E200020F040600843C5F88800606CB84204D1E7
:100E3000E86840F48010E86007E0404505D10121F2
:100E4000201D00F0A3FF00B106462088400411D504
:100E5000D5F88800A16C20F040500843C5F8880000
:100E6000A06CB0F1805F05D10221201D00F08EFF43
:100E700000B106462088000406D555F8880FE16CBD
:100E800020F0804008432860304600F005B800009C
:100E9000001002400070004018BCBDE8E08F000068
:100EA0002DE9F0470F46050058D0404E306800F05D
:100EB0000700B84209D2306820F00700384330609C
:100EC000306800F00700B84248D12878384CC00795
:100ED0002CD06868032811D0022812D0216898B15C
:100EE000490500293ADAA16821F003010143A16014
:100EF000FFF7B0FB804641F2883910E02168890194
:100F0000EFE721688903ECE78907EAE7FFF7A2FB2F
:100F1000A0EB0801494502D90320BDE8F087A0688D
:100F2000696800F00C00B0EB810FEFD128788007E2
:100F300005D5A068A96820F0F0000843A0603068DB
:100F400000F00700B8420BD9306820F007003843A2
:100F50003060306800F00700B84201D00120DCE7C3
:100F60002878400705D5A068E96820F4E0600843C8
:100F7000A0602878000706D5A068296920F4605091
:100F800040EAC100A06000F03FF8A168094AC1F33F
:100F90000311515C01F01F01C84007490860074870
:100FA0000068BDE8F047FFF781BD00000020024067
:100FB00000100240582E00082C00002020000020C5
:100FC0000548064900688968054AC1F30221515C59
:100FD00001F01F01C84070472C00002000100240A3
:100FE000982E00080548064900688968054AC1F33B
:100FF000C221515C01F01F01C84070472C00002045
:1010000000100240982E000870B5254900231846AC
:101010008A68CC6812F00C0204F00306214C4FEAF7
:10102000640509D00C2A05D0042A32D0082A00D140
:10103000284670BD012E10D10B681B0704D4D1F8CF
:101040009430C3F3032302E00B68C3F30313164E7B
:1010500056F82330DAB10C2AEBD1C86800F003004F
:10106000022818D0032818D01846CA68CB68C2F3E3
:101070000212C3F306234343521CB3FBF2F2C868C7
:10108000C0F34160401C4000B2FBF0F070BD184658
:1010900070BD204670BD2046E7E72846E5E7000022
:1010A000001002400024F400682E00082DE9F843E7
:1010B00004006FD0FE4DA86800F00C06E86800F050
:1010C00003072078C00664D576B10C2E01D1012F1C
:1010D0000AD0A069002828687AD040F00100286072
:1010E000FFF7B8FA80465DE02868800702D5A0695E
:1010F0000028DED0216A2868000703D5286800F0A0
:10110000F00004E0D5F89400F02202EA10108142C9
:1011100016D9084600F0D0FE00283BD1286840F0E0
:10112000080028602868216A20F0F0000843286041
:101130006868E16920F47F4040EA0120686016E0B9
:10114000286840F0080028602868216A20F0F00034
:10115000084328606868E16920F47F4040EA012084
:10116000686026B9206A00F0A7FE0028D5D1FFF7F5
:101170004BFFA968CF4AC1F30311515C01F01F0175
:10118000C840CD490860CD480068FFF78FFC0028B3
:101190007ED12EE0CAE000BFFFF75CFAA0EB0800AA
:1011A000022876D828688007F6D5286840F008001D
:1011B00028602868216A20F0F000084328606868E9
:1011C000E16920F47F4040EA0120686011E0FFE718
:1011D00020F001002860FFF73DFA804606E000BFDE
:1011E000FFF738FAA0EB08000228DAD82868800751
:1011F000F6D42078C00740D0082E18D00C2E01D18C
:10120000032F14D06068B0F5803F17D0B0F5A02F41
:10121000286817D020F480302860286820F48020C7
:1012200028606068E0B1FFF715FA804614E028688E
:10123000800322D56068002878D01EE0286840F43A
:101240008030EDE740F480202860F7E7FFF702FAEE
:10125000A0EB08006428A4D828688003F6D50CE029
:10126000FFF7F8F9804605E0FFF7F4F9A0EB080076
:10127000642896D828688003F6D4207880073BD568
:10128000042E11D00C2E01D1022F0DD0E06801E008
:10129000B6E1FFE0002828681ED040F48070286086
:1012A000FFF7D8F907460CE0286840050CD5E06840
:1012B0000028C1D008E000BFFFF7CCF9C01B02280E
:1012C00093D828684005F7D56868217C20F0F8504D
:1012D00040EA016068600FE020F480702860FFF74A
:1012E000B9F9074605E000BFFFF7B4F9C01B0228B3
:1012F000B1D828684005F7D42078000729D560695F
:101300000028D5F8940012D040F00100C5F89400F0
:10131000FFF7A0F9074604E0FFF79CF9C01B02287D
:1013200099D8D5F894008007F6D512E02BE120F08B
:101330000100C5F89400FFF78DF9074605E000BFEE
:10134000FFF788F9C01B022885D8D5F894008007DC
:10135000F6D42078400766D5A86D0027C00008D4D1
:10136000A86D40F08050A865A86D012700F080505E
:10137000009053480168C90512D40168814641F4C0
:1013800080710160FFF766F9804605E0FFF762F9BA
:10139000A0EB080002287DD8D9F80000C005F5D5DB
:1013A000A068012816D00528D5F8900017D020F0A5
:1013B0000100C5F89000D5F8900020F0040000BFAF
:1013C000C5F89000A06841F28839C0B1FFF742F932
:1013D00080460FE0D5F8900040F00100F0E740F0C3
:1013E0000400C5F89000F5E7FFF734F9A0EB080119
:1013F00049454FD8D5F890008007F5D50EE0FFF7A6
:1014000029F9804606E000BFFFF724F9A0EB0801A8
:1014100049453FD8D5F890008007F5D41FB1A86D95
:1014200020F08050A8652078800628D5606A0028C2
:10143000D5F8980012D040F00100C5F89800FFF7E9
:1014400009F9074605E000BFFFF704F9C01B0228B1
:1014500020D8D5F898008007F6D510E020F00100DC
:10146000C5F89800FFF7F6F8074604E0FFF7F2F832
:10147000C01B02280ED8D5F898008007F6D4A06AC1
:10148000A8B1022824D00C2E7DD0286820F08070CE
:10149000286000E0B3E02868000103D4E86820F089
:1014A0000300E860E86807490840E8600CE09FE056
:1014B00000100240582E00082C00002020000020C0
:1014C00000700040FFFFEEFEFFF7C4F8044699E00D
:1014D000E868E26A00F00301914226D1216B00F036
:1014E00070020901103991421FD1626B00F4FE4174
:1014F000B1EB022F19D194F8382000F07841B1EB0C
:10150000C26F12D1A18F00F4C00249084905A1F5AC
:101510000011914209D194F8401000F0C0604908D0
:101520004906A1F1007181424BD00C2E6FD0286882
:1015300040016CD4286820F080702860FFF78AF89A
:10154000064604E0FFF786F8801B022857D8286873
:101550008001F7D4F4E90B016FF00F0202EB0111E7
:101560000843218A5204490802EB4151A26841EA2A
:1015700002210843217D4FF07E42490802EB416180
:101580000843217B00E042E040EAC160E968214A6B
:1015900011400843E860286840F080702860E868DF
:1015A00040F08070E860FFF755F8044605E000BFA2
:1015B000FFF750F8001B022821D828688001F7D5D2
:1015C00023E02868800120D4286840F080702860DB
:1015D000E86840F08070E860FFF73CF8044604E0FB
:1015E000FFF738F8001B022809D828688001F7D5D2
:1015F0000BE000BFFFF72EF8001B022802D90320E2
:10160000BDE8F88328688001F4D40020F8E70120C1
:10161000F6E700008C809D0110B5401EB0F1807F80
:1016200001D3012010BD4FF0E02460610F2160174D
:1016300000F03AFF0020A06107202061002010BDCB
:10164000704770472DE9F04102680446D06911687F
:10165000936840F60F0528424FF0000505D1860635
:101660007BD58E0679D5216E88E003F0010601F462
:101670009077374371D0C70707D0CF0505D501272D
:101680001762E26F42F00102E267820708D5DA07CB
:1016900006D0276802223A62E26F42F00402E26753
:1016A000420708D5DA0706D0236804221A62E26FDF
:1016B00042F00202E26702070AD501F0200232433B
:1016C00006D0236808221A62E26F42F00802E2673D
:1016D000020509D54A0107D523684FF400621A6252
:1016E000E26F42F02002E267E26F002A2ED080060D
:1016F00005D5880603D5216E09B120468847E06FDD
:1017000021688968490602D410F0280F20D02046AD
:1017100000F00CFD20688168490614D5816821F02D
:1017200040018160E06E70B11D498163E06EFEF79B
:101730008BFE00280AD0E06E816B00E02046BDE8F9
:10174000F041084709E02046FFF77BFFBDE8F08144
:101750002046FFF776FFE567F8E7C60209D55B028A
:1017600007D54FF4801010622046BDE8F041FFF726
:1017700067BF030605D50B0603D5616E0029DDD1D1
:10178000E4E74006E2D54806E0D51168204621F09E
:101790004001116020216167656600F074F9D5E7AA
:1017A0001921000810B5040002D0606F10B107E0E5
:1017B000012010BD002084F87000204600F026F8BB
:1017C000242060672068016821F001010160204643
:1017D00000F0BCFC0128ECD0606A10B1204600F09B
:1017E0000BFC2068416821F49041416020688168C9
:1017F00021F02A0181602068016841F00101016047
:101800002046BDE8104000F05BBC0000F0B587B09A
:10181000044614216846FEF710FD2D4F236800266C
:101820002C490225032407224FF09040BB421ED1D1
:101830000B6E43F480430B660B6E03F480430593F9
:10184000CB6C43F00103CB64C96C01F0010105913D
:1018500061028DE86200CDE903426946FEF71CFE95
:10186000002211462520FFF767F925202CE01A4FAA
:10187000BB422BD18B6D43F400338B658B6D03F42E
:1018800000330593CB6C43F00103CB64C96C07466E
:1018900001F00101059104218DE86200CDE90342C8
:1018A0006946FEF7F9FD4FF40040CDE90005CDE9AA
:1018B0000264694604943846FEF7EEFD00221146A4
:1018C0002620FFF739F92620FFF728F907B0F0BDE9
:1018D0000038014000100240004400402DE9F84F5C
:1018E0000446806F9A4616460D4620286BD1EDB10E
:1018F000E6B194F87000012865D0012084F87000EA
:101900004FF00008C4F87C802220A067FEF7A2FEFA
:10191000A4F858608146A4F85A60A0684FF4805338
:10192000FF21984208D122691AB11CE0012000F081
:101930004CB840F2FF1116E07F2290B1B0F1805F09
:1019400014D0A4F85C8000BFB4F85C70984201D158
:10195000206990B12E46002584F8708007F0FF08BA
:1019600025E0266936B9A4F85C10EDE7216909B1D4
:101970003F21F8E7A4F85C20E6E70026ECE74B46B9
:10198000002220212046CDF800A000F0F3FC08B191
:101990000320CCE72068808C8EB100EA080006F8AE
:1019A000010B00BFB4F85A00401EA4F85A00B4F866
:1019B0005A000028E3D12020A0670020B7E7384074
:1019C00025F8020BEEE70220B1E718BCBDE8E08F76
:1019D0002DE9F8430446406F1F4616460D46202861
:1019E0004FD1CDB1C6B194F87000012849D0012083
:1019F00084F870004FF00008C4F87C8021206067F4
:101A0000FEF728FEA4F850608146A4F85260A06852
:101A1000B0F5805F03D004E00120BDE8F8832069C1
:101A200028B12E465FF0000584F8708010E0002693
:101A3000FAE78021204600F09DFCB8B9C6B116F83F
:101A4000010B21680885B4F85200401EA4F852002A
:101A5000B4F852004B464FF0000200970028E8D13E
:101A60004FF04001204600F085FC30B10320D4E760
:101A700035F8020BC0F30800E3E720206067002080
:101A8000CBE70220C9E77047FEE701688A69D243C5
:101A9000920701D400228A6200688169C943C9079C
:101AA00003D0816941F00101816170472DE9F04166
:101AB0000446006890460E468069C043C00633D491
:101AC0000025202720688069C043800615D5701C3A
:101AD000F8D0FEF7BFFDA0EB0800B04201D8002E01
:101AE000F0D154F8440F40F0200044F80409677026
:101AF000A57025700120BDE8F08121681020C86123
:101B00002068C7612046FFF7C0FF54F8440B4168C6
:101B1000064A11404160206840F0040044F8200962
:101B20006777A5772577E5E70020E4E700E800FE82
:101B3000F0B50568059C68684FF48066064FC1F3F0
:101B4000090106EA545641EA02413E431943B043B3
:101B5000214308436860F0BDFF63FF032DE9F041B6
:101B60001D4617460E460446DDF8188008E0681C3E
:101B700006D0FEF76FFDA0EB0800A8420BD855B1C8
:101B80002068806936EA000012D00020B842EED00A
:101B90000020BDE8F08154F8440F40F0200044F8E4
:101BA0000409202060700020A07020700120F0E760
:101BB0000120EBE72DE9F041002690460F46044650
:101BC000202525E0424639462046FFF76FFF78BBC7
:101BD00020688069C043800613D420688169C943A6
:101BE000490701D4218DC1B9C56154F8440B41683E
:101BF000104A1140416044F820696577A67726773E
:101C000016E0FEF727FDA0EB0800B84208D83FB168
:101C100020688069C0434007D4D40020BDE8F0812B
:101C200054F8440F40F0200044F804096570267011
:101C30000120F3E700E800FE70B516460D460446A5
:101C40000DE0324629462046FFF730FF08B101205B
:101C500070BDFEF7FFFC801BA84207D835B1206895
:101C60008069C0438006ECD4002070BD54F8440F56
:101C700040F0200044F80409202060700020A0708B
:101C80002070E4E770B516460D4604460FE0324674
:101C900029462046FFF70AFF08B1012070BD681CE5
:101CA00005D0FEF7D7FC801BA84207D835B12068C5
:101CB0008069C0438007EAD4002070BD54F8440F07
:101CC00040F0200044F80409202060700020A0703B
:101CD0002070E2E708B1012200E00022082101485B
:101CE000FEF7B2BC000400480E4810B50C49016074
:101CF0000D49416000210122C0E9021201614161E8
:101D00008161C1610162FEF7FFFC00210548FEF719
:101D1000A7FCBDE8104000210248FEF7CCBC000043
:101D20000054004034000020EC9C90100948084901
:101D300001604FF4E1314160002181600C22C160FB
:101D4000C0E904128161C16101624162FFF72ABDED
:101D500000380140800000200948084901604FF424
:101D6000E1314160002181600C22C160C0E90412B0
:101D70008161C16101624162FFF714BD004400400E
:101D800000010020FEE77047704700002DE9F04198
:101D9000444C05468846E0680026810728680DD037
:101DA000E16801F00301814216D1A8B1E0686968D9
:101DB000C0F30210401C88420ED120E0012804D05C
:101DC000022805D0032807D108E02168890701E02F
:101DD00021684905002907DB01265FE021688903A6
:101DE00002D421684903F5E7E1686A686FF00F03E0
:101DF00021F0730103EB021211430143E1602068FB
:101E000020F080602060FEF725FC074605E000BF5B
:101E1000FEF720FCC01B022837D820680001F7D449
:101E2000B8F1000F18D0B8F1010F1DD0287D4FF088
:101E30007E41400801EB4060A96840EA0120216929
:101E4000194A114008432061206840F080602060FA
:101E5000FEF700FC07461AE0A868297B000240EA6A
:101E6000C1602169114AECE7288A1149400801EB59
:101E70004050A96840EA012021690E4AE1E700BF0D
:101E8000FEF7E8FBC01B022801D9032606E0206804
:101E90000001F5D52069A969084320613046BDE8F5
:101EA000F081000000100240FF80FFF9FF80FF0773
:101EB0000000E0FFFF809FFFF8B51C4D06460024A0
:101EC000A86DC00002D5FEF79DFE0DE0A86D40F0A4
:101ED0008050A865A86D00F080500090FEF792FE3B
:101EE000A96D21F08051A965B0F5007F04D0802E46
:101EF00007D94FF003040AE0802E08D9A02E01D89C
:101F000004E001D1022402E0702E00D1012408482F
:101F1000016821F0070121430160006800F007001B
:101F2000A04201D00120F8BD0020F8BD0010024001
:101F3000002002407047FEF7A1BD10B5ACB04421AF
:101F40006846FEF77AF9142126A8FEF776F954219F
:101F500011A8FEF772F910200090012000246021E2
:101F60000690CDE907410221CDE90A100C90282006
:101F70000D900720CDE90E0168461091FFF796F805
:101F80000F2026900320CDE927042994042126A8B8
:101F90002A94FEF785FF4320119019941A941C94FB
:101FA00011A8FEF737FE4FF40070FEF7F7FD2CB0D6
:101FB00010BD00000D48016841F4700101600C483B
:101FC000016841F001010160002181600268094B54
:101FD0001A4002608214C260026822F48022026009
:101FE00081610249C00380390860704788ED00E0D4
:101FF00000100240FFFFF6EA90F82410C90706D04F
:1020000001684A68836A22F400321A434A6090F8F1
:102010002410890706D501684A68C36A22F4803211
:102020001A434A6090F82410490706D501684A68A7
:10203000036B22F480221A434A6090F824100907A7
:1020400006D501684A68436B22F400421A434A608D
:1020500090F82410C90606D501688A68836B22F4BB
:1020600080521A438A6090F82410890606D50168C8
:102070008A68C36B22F400521A438A6090F82410D5
:10208000490611D501684A68036C22F480121A438C
:102090004A60016CB1F5801F06D101684A68436C43
:1020A00022F4C0021A434A6090F82410090606D5AB
:1020B00001684A68806C22F4002202434A6070473B
:1020C000F8B500260446C667FEF7C4FA0546206840
:1020D00000686FF07E47000708D52B4600224FF4BA
:1020E00000112046009700F045F960B920680068AB
:1020F00040070AD52B4600224FF480012046009766
:1021000000F038F908B10320F8BD20206067A0670F
:1021100084F870600020F8BD10B5806A0021A0F836
:102120005A10A0F85210FFF78CFA10BD01680A6827
:1021300022F490720A6001688A6822F001028A60C3
:102140002021816700210166704700002DE9F041E0
:10215000044600682369A268E5691A436369002799
:102160002B431A437A4903687A4D2B40134303608B
:1021700020684268E36822F440521A4342602268B1
:10218000A0698A4201D0236A1843936823F430631C
:1021900003439360704B226870489A420DD1D0F887
:1021A000880010F0030006D0012838D0022834D06F
:1021B000032821D135E001251FE0694B9A420BD15C
:1021C000D0F8880010F00C0025D0042827D008286B
:1021D00023D00C2810D124E08A420DD1D0F88800F9
:1021E00010F4406017D0B0F5806F18D0B0F5006FD4
:1021F00013D0B0F5406F14D010255A4B00264FF481
:1022000000408A4245D175B1022D0FD0042D0FD068
:10221000082D18D10FE00025EFE70225EDE7042592
:10222000EBE70825E9E7FEF7CBFE03E0184602E0FE
:10223000FEF7EAFEA8B3626802EB4201814202D8CF
:10224000B0EB023F01D901276FE0DFF81C815DB1DF
:10225000022D0CD0042D13D0082DF4D150082905DF
:10226000401846F1000105E0FEF7AAFE0AE050081A
:102270003E49F5E70023FDF7A5FFA0F5407150E0CA
:10228000FEF7C2FE6268010E030250081818714181
:10229000F0E7E1694FF6EF7881422FD1092DD2D2D4
:1022A00000E042E0DFE805F006092005230505050A
:1022B0002600C8E7FEF784FE01E0FEF793FE41002A
:1022C000D4F8040001EB5001B1FBF0F080B2A0F1B2
:1022D00010014145B7D84FF6F0710140C0F34200FC
:1022E00001432068C16020E021496068EAE7FEF709
:1022F0008BFEE4E74FF480316068E3E7092DA2D25A
:10230000DFE805F0060918051E05050520009AE717
:10231000FEF756FE16E0FEF765FE13E080B2A0F170
:10232000100141458FD82168C86026663846666628
:10233000BDE8F081606803EB5001B1FBF0F0EDE720
:10234000FEF762FE616800EB5100B0FBF1F0E5E7DB
:1023500000800040F369FFEF0038014000100240A8
:10236000004400400024F400FFFC0F00000024F4AF
:102370000048E8012DE9F0479A4617460E46044604
:102380004FF000094FF02008089D39E0681C37D055
:10239000FEF760F9A0EB0A00A84222D80DB320682E
:1023A000016849072CD5C069C043000528D42168BD
:1023B0004FF4006008622068016821F4D071016068
:1023C0002068816821F001018160C4F87480C4F83C
:1023D0007880C4F87C8000BF84F870900320BDE84A
:1023E000F0872068016821F4D0710160206881685D
:1023F00021F001018160C4F87480C4F87880EBE7B3
:102400002068C06936EA000004D00020B842BDD080
:102410000020E4E70120F9E770B5124C124D0A23C1
:1024200020680122C11700EB116121F0FF01401A61
:1024300041190E48FFF752FA206800280BDDC1173A
:1024400000EB116121F0FF01411A29440A780A2AA0
:1024500001D100220A70401C2060BDE87040034892
:10246000FFF7F0B818000020800100208000002055
:102470000148FFF7E7B8000000010020FEE7000078
:102480000FB4084B10B504A902AA039800F030F865
:10249000044602A9002000F0D8F8204610BC5DF8E0
:1024A00014FB00004B2600080907090E002804DB76
:1024B00000F1E02080F80014704700F00F0000F1F8
:1024C000E02080F8141D704700487047300000205D
:1024D00002E008C8121F08C1002AFAD170477047ED
:1024E000002001E001C1121F002AFBD1704700004B
:1024F0002DE9FF4F89B09B460446002506E02528BC
:102500000BD05A460B999047641C6D1C207800280C
:10251000F5D10DB0284600F095B80027B846012245
:10252000474900E0074314F8013F203B02FA03F05B
:102530000842F7D120782E2819D114F8010F47F05E
:1025400004072A280ED06FF02F022078A0F1300166
:1025500009290CD808EB880102EB410100EB0108C6
:10256000641CF2E70A98641C50F8048B0A902078E7
:102570000028CED0642808D0692806D075281ED03F
:102580005A460B9990476D1C58E00A994FF00A097A
:1025900001C90A91002802DA40422D2102E03905E2
:1025A00004D52B218DF82010012103E0F90704D078
:1025B0002021F7E78A4608AE0DE00021FAE70A99E4
:1025C0004FF00A0901C90A91F7E74946FDF78EFE67
:1025D000303106F8011D0028F7D1ADEB060000F1FF
:1025E0002009780701D44FF00108C84502DDA8EBA7
:1025F000090000E000208046002706E008A85A46AF
:10260000C05D0B9990476D1C7F1C5745F6DB04E0BD
:1026100030205A460B9990476D1CB8F10001A8F183
:102620000108F5DC05E016F8010B5A460B999047B6
:102630006D1CB9F10001A9F10109F4DC641C65E726
:102640000928010030BCBDE8C08F0A68531C0B602C
:10265000107070473EB512A10A24D1E90001009420
:10266000CDE901010123104AD0211048FEF73EF9BF
:1026700000940D4C0123621CD1210C48FEF7A0F8F8
:10268000607800F0010000F059F98DF80600074865
:102690000A23052201A94C30FFF79AF93EBD00003C
:1026A000413A000D0A000000100000203400002014
:1026B0002DE9F04357A187B0D1E90001CDE901012F
:1026C0002D208DF814000A240123544AD0215448A7
:1026D0000094FEF70BF9514D01236A1CD02150489C
:1026E0000094FEF76DF86878022340F020006870CF
:1026F0002A46D0214A480094FEF7F8F82E1D4FF0E4
:1027000030084FF03509AD1C444A0123921CD021FA
:1027100043480094FEF7EAF801236A1CD0214048A0
:102720000094FEF74DF868784007EDD43B4A01234A
:10273000121DD0213A480094FEF7D8F80123721CEC
:10274000D02137480094FEF73BF8344A0123921D0C
:10275000D02133480094FEF7C9F8304F0123BF1D44
:102760007A1CD0212E480094FEF72AF8707800F0E9
:102770000F0000F0E3F88DF80D00002000F0DEF807
:102780008DF80C001022002103A8FDF777FD02460A
:1027900024A104A8FFF774FE787830B1402809D04E
:1027A000802809D0C02811D10BE08DF805808DF864
:1027B00006800BE0322005E08DF805908DF806804C
:1027C00004E037208DF805008DF80690707800063B
:1027D00006D513486423012205A94C30FFF7F8F809
:1027E00004A8FDF735FD82B20D48642304A94C30DE
:1027F000FFF7EEF801A8FDF72BFD82B2084864232D
:1028000001A94C30FFF7E4F8687840078DD407B091
:10281000BDE8F0832E303020430D0A000E0000206A
:10282000340000202575000030B53EA385B00FCBE5
:102830000A2401AD009485E80F0001233D4AD02110
:102840003D48FEF753F83B4D01236A1CD1213A481D
:102850000094FDF7B5FF6878000900F06FF88DF877
:102860000A00687800F00F0000F068F88DF80B009F
:102870000123AA1CD02130480094FEF737F8AD1C84
:1028800001236A1CD1212C480094FDF799FF687838
:10289000000900F053F88DF80700687800F00F0089
:1028A00000F04CF88DF808000123AA1CD021224822
:1028B0000094FEF71BF8AD1C01236A1CD1211E48B1
:1028C0000094FDF77DFF6878C0F3001000F036F843
:1028D0008DF80400687800F00F0000F02FF88DF8F4
:1028E0000500012305F10C02D02113480094FDF7E7
:1028F000FDFF009405F10C040123621CD1210E4858
:10290000FDF75EFF607800F0010000F017F88DF829
:10291000100009480A230E2201A94C30FFF758F88D
:1029200005B030BD00003A00003A000020413A00F6
:102930000D0A00000000002034000020092801D802
:10294000303000E03730C0B27047000070B5724CD4
:10295000D4E9060181427DDA401EC21700EB126203
:1029600022F0FF026D4D801A405D002872D1C81719
:1029700001EB106020F0FF00081A2844032268A130
:10298000FDF76DFC0028E0694FEAE07100EB116192
:1029900021F0FF01A0EB010028444AD0072261A1E9
:1029A000FDF75DFC002861D0E0690822C11700EB4B
:1029B000116121F0FF01401A28445CA1FDF74FFC92
:1029C000002856D0E0690722C11700EB116121F001
:1029D000FF01401A284458A1FDF741FC00284BD0C4
:1029E000E0690622C11700EB116121F0FF01401AD6
:1029F000284453A1FDF733FC68B3E0690722C117EF
:102A000000EB116121F0FF01401A28444EA1FDF7AF
:102A100026FC0028E06935D0C11700EB116121F0D8
:102A2000FF01401A2844082249A1FDF718FCE8B329
:102A300062E0FDF70DFC032813D0E069C11700EB3D
:102A4000116121F0FF01401A2844FDF701FC06281E
:102A50000AD001E05EE012E05FF00000FFF73AF913
:102A60004AE000F0F3F947E00120F7E7FFF7DCFE6A
:102A700042E0FFF7EFFD3FE0FFF71AFE3CE000F019
:102A800003F939E000F10803991DC81701EB106044
:102A900020F0FF00081ADE1C4219F01706EB106048
:102AA00020F0FF00301A4119D81700E008E003EBCE
:102AB000106020F0FF00181A284400F085F91BE090
:102AC000E06900F10903991DC81701EB106020F0BF
:102AD000FF00081ADE1C4219F01706EB106020F008
:102AE000FF00301A4119D81703EB106020F0FF00E7
:102AF000181A284400F0DEF8E069C11700EB1161F4
:102B000021F0FF01401A2844FDF7A2FBE1690844C7
:102B1000401CE06170BD000000000020800100202A
:102B2000244C470024472054696D65002447204108
:102B30006C61726D0000000024472054656D7000C8
:102B400024502053544D000024532054696D6500D7
:102B5000245320416C61726D0000000086B0FDF7C7
:102B600095FFFFF7EAF914216846FDF766FB424836
:102B7000C16C41F00101C164C16C01F0010105911A
:102B8000C16C41F00201C164C06C3C4F00F0020016
:102B90000590002208213846FDF756FD082501263C
:102BA00000240095CDE90164694638460394FDF799
:102BB00073FCFFF7D1F8FFF7B9F8FFF795F8304845
:102BC0002F4901230470801C091D06700220087023
:102BD000891C07200870881C091D057009200870D1
:102BE000881C0A2404700D1D0E2028708E1D0F20D5
:102BF0003070083111200870891C122008708A1F5B
:102C0000D02120480094FDF771FE01236A1CD021D9
:102C10001C480094FDF7D4FD6878022340F00500BD
:102C200068702A46D02117480094FDF75FFE012303
:102C3000AA1CD02113480094FDF758FE0123721CF2
:102C4000D02110480094FDF7BBFD7078022300F0FE
:102C5000FC007070AA1CD0210A480094FDF746FEC3
:102C600008484C300068016841F02001C0F80010AD
:102C7000FFF76CFEFCE70000001002400004004873
:102C800000000020340000201CB507A1D1E900019C
:102C9000CDE900016846FDF7DBFA82B2642369469C
:102CA0000348FEF795FE1CBD504F4E472100000023
:102CB000800000202DE9F8430E46144605460146E3
:102CC000642302223E48FEF783FE6423022231463B
:102CD0003B48FEF77DFE6423022221463848FEF77A
:102CE00077FE28780A273038287068780123303832
:102CF00068703078334A303830707078D02130388E
:102D000070702078303820706078303860702C48CF
:102D10000097CC38FDF7EAFDDFF8A88028480123AA
:102D200008F10102D021CC380097FDF749FD98F851
:102D30000100022300F0FC0188F8011020484246FF
:102D4000D021CC380097FDF7D1FD6078217802239F
:102D500040EA0110A8F10A010A4648701848D0213B
:102D6000CC380097FDF7C2FD70783178022340EA35
:102D70000110A8F108010A4648701148D021CC384A
:102D80000097FDF7B3FD68782978022340EA011027
:102D9000A8F106010A4648700948D021CC380097AE
:102DA000FDF7A4FDA8F104018020487004480A46FC
:102DB0000223D021CC380097FDF798FDBDE8F883B9
:102DC0000001002010000020F8B5054600780C46F0
:102DD0003038287068780A263038687008780223FE
:102DE00030380870487830384870107830381070B3
:102DF00051783039517041EA001012490A46487042
:102E0000D02111480096FDF771FD607821780223EA
:102E100040EA01100B49891C0A464870D0210A4833
:102E20000096FDF763FD68782978022340EA0110D7
:102E30000449091D0A464870D02103480096FDF751
:102E400055FDF8BD00000020340000200821014895
:102E5000FDF7F3BB00040048000000000000000084
:102E60000102030406070809A0860100400D0300C3
:102E7000801A060000350C0040420F0080841E00BE
:102E800000093D0000127A000024F40000366E01B3
:102E90000048E801006CDC020000000001020304AD
:102EA000004040404040404040404141414141405D
:102EB0004040404040404040404040404040404012
:102EC00040050202020202020202020202020202A1
:102ED00002202020202020202020200202020202A6
:102EE00002029090909090901010101010101010FE
:102EF000101010101010101010101010020202020A
:102F0000020288888888888808080808080808084D
:102F10000808080808080808080808080202020249
:102F200040000000A12E0008482F000800000020EB
:102F300034000000D02400087C2F0008340000205A
:102F40004C060000E0240008000000000000000023
:102F50000000000000000000000000000000000071
:102F60000000000000000000100000000100000050
:0C2F70000000000000093D00000000000F
:040000050800018D61
:00000001FF
